{
  "_format": "hh-sol-artifact-1",
  "contractName": "HealthcareRegistry",
  "sourceName": "contracts/HealthcareRegistry.sol",
  "abi": [
    {
      "inputs": [],
      "stateMutability": "nonpayable",
      "type": "constructor"
    },
    {
      "anonymous": false,
      "inputs": [
        {
          "indexed": true,
          "internalType": "address",
          "name": "doctor",
          "type": "address"
        },
        {
          "indexed": true,
          "internalType": "address",
          "name": "patient",
          "type": "address"
        }
      ],
      "name": "DoctorAssigned",
      "type": "event"
    },
    {
      "anonymous": false,
      "inputs": [
        {
          "indexed": true,
          "internalType": "address",
          "name": "patient",
          "type": "address"
        }
      ],
      "name": "PatientDataUpdated",
      "type": "event"
    },
    {
      "anonymous": false,
      "inputs": [
        {
          "indexed": true,
          "internalType": "address",
          "name": "user",
          "type": "address"
        },
        {
          "indexed": false,
          "internalType": "enum HealthcareRegistry.Role",
          "name": "role",
          "type": "uint8"
        }
      ],
      "name": "RoleAssigned",
      "type": "event"
    },
    {
      "anonymous": false,
      "inputs": [
        {
          "indexed": true,
          "internalType": "address",
          "name": "patient",
          "type": "address"
        },
        {
          "indexed": true,
          "internalType": "address",
          "name": "doctor",
          "type": "address"
        }
      ],
      "name": "TreatmentPlanUpdated",
      "type": "event"
    },
    {
      "inputs": [
        {
          "internalType": "address",
          "name": "_doctor",
          "type": "address"
        },
        {
          "internalType": "address",
          "name": "_patient",
          "type": "address"
        }
      ],
      "name": "assignDoctorToPatient",
      "outputs": [],
      "stateMutability": "nonpayable",
      "type": "function"
    },
    {
      "inputs": [
        {
          "internalType": "address",
          "name": "_user",
          "type": "address"
        },
        {
          "internalType": "enum HealthcareRegistry.Role",
          "name": "_role",
          "type": "uint8"
        }
      ],
      "name": "assignRole",
      "outputs": [],
      "stateMutability": "nonpayable",
      "type": "function"
    },
    {
      "inputs": [
        {
          "internalType": "address",
          "name": "",
          "type": "address"
        },
        {
          "internalType": "uint256",
          "name": "",
          "type": "uint256"
        }
      ],
      "name": "doctorPatients",
      "outputs": [
        {
          "internalType": "address",
          "name": "",
          "type": "address"
        }
      ],
      "stateMutability": "view",
      "type": "function"
    },
    {
      "inputs": [],
      "name": "getAllPatients",
      "outputs": [
        {
          "internalType": "address[]",
          "name": "",
          "type": "address[]"
        }
      ],
      "stateMutability": "view",
      "type": "function"
    },
    {
      "inputs": [
        {
          "internalType": "address",
          "name": "_patient",
          "type": "address"
        }
      ],
      "name": "getDoctorPatientData",
      "outputs": [
        {
          "components": [
            {
              "internalType": "string",
              "name": "name",
              "type": "string"
            },
            {
              "internalType": "uint256",
              "name": "age",
              "type": "uint256"
            },
            {
              "internalType": "string",
              "name": "gender",
              "type": "string"
            },
            {
              "internalType": "string",
              "name": "medicalHistory",
              "type": "string"
            },
            {
              "internalType": "string",
              "name": "insuranceInfo",
              "type": "string"
            },
            {
              "internalType": "string",
              "name": "currentTestReports",
              "type": "string"
            },
            {
              "internalType": "bool",
              "name": "exists",
              "type": "bool"
            }
          ],
          "internalType": "struct HealthcareRegistry.PatientData",
          "name": "",
          "type": "tuple"
        }
      ],
      "stateMutability": "view",
      "type": "function"
    },
    {
      "inputs": [],
      "name": "getDoctorPatients",
      "outputs": [
        {
          "internalType": "address[]",
          "name": "",
          "type": "address[]"
        }
      ],
      "stateMutability": "view",
      "type": "function"
    },
    {
      "inputs": [],
      "name": "getMyRole",
      "outputs": [
        {
          "internalType": "enum HealthcareRegistry.Role",
          "name": "",
          "type": "uint8"
        }
      ],
      "stateMutability": "view",
      "type": "function"
    },
    {
      "inputs": [
        {
          "internalType": "address",
          "name": "_patient",
          "type": "address"
        }
      ],
      "name": "getPatientData",
      "outputs": [
        {
          "components": [
            {
              "internalType": "string",
              "name": "name",
              "type": "string"
            },
            {
              "internalType": "uint256",
              "name": "age",
              "type": "uint256"
            },
            {
              "internalType": "string",
              "name": "gender",
              "type": "string"
            },
            {
              "internalType": "string",
              "name": "medicalHistory",
              "type": "string"
            },
            {
              "internalType": "string",
              "name": "insuranceInfo",
              "type": "string"
            },
            {
              "internalType": "string",
              "name": "currentTestReports",
              "type": "string"
            },
            {
              "internalType": "bool",
              "name": "exists",
              "type": "bool"
            }
          ],
          "internalType": "struct HealthcareRegistry.PatientData",
          "name": "",
          "type": "tuple"
        }
      ],
      "stateMutability": "view",
      "type": "function"
    },
    {
      "inputs": [
        {
          "internalType": "address",
          "name": "_patient",
          "type": "address"
        }
      ],
      "name": "getTreatmentPlan",
      "outputs": [
        {
          "components": [
            {
              "internalType": "string",
              "name": "diagnosis",
              "type": "string"
            },
            {
              "internalType": "string",
              "name": "treatmentDetails",
              "type": "string"
            },
            {
              "internalType": "string",
              "name": "prescribedMedication",
              "type": "string"
            },
            {
              "internalType": "uint256",
              "name": "estimatedCost",
              "type": "uint256"
            },
            {
              "internalType": "address",
              "name": "assignedDoctor",
              "type": "address"
            },
            {
              "internalType": "uint256",
              "name": "lastUpdated",
              "type": "uint256"
            },
            {
              "internalType": "bool",
              "name": "exists",
              "type": "bool"
            }
          ],
          "internalType": "struct HealthcareRegistry.TreatmentPlan",
          "name": "",
          "type": "tuple"
        }
      ],
      "stateMutability": "view",
      "type": "function"
    },
    {
      "inputs": [
        {
          "internalType": "string",
          "name": "_name",
          "type": "string"
        },
        {
          "internalType": "uint256",
          "name": "_age",
          "type": "uint256"
        },
        {
          "internalType": "string",
          "name": "_gender",
          "type": "string"
        },
        {
          "internalType": "string",
          "name": "_medicalHistory",
          "type": "string"
        },
        {
          "internalType": "string",
          "name": "_insuranceInfo",
          "type": "string"
        },
        {
          "internalType": "string",
          "name": "_currentTestReports",
          "type": "string"
        }
      ],
      "name": "registerPatientData",
      "outputs": [],
      "stateMutability": "nonpayable",
      "type": "function"
    },
    {
      "inputs": [
        {
          "internalType": "address",
          "name": "_patient",
          "type": "address"
        },
        {
          "internalType": "string",
          "name": "_diagnosis",
          "type": "string"
        },
        {
          "internalType": "string",
          "name": "_treatmentDetails",
          "type": "string"
        },
        {
          "internalType": "string",
          "name": "_prescribedMedication",
          "type": "string"
        },
        {
          "internalType": "uint256",
          "name": "_estimatedCost",
          "type": "uint256"
        }
      ],
      "name": "updateTreatmentPlan",
      "outputs": [],
      "stateMutability": "nonpayable",
      "type": "function"
    },
    {
      "inputs": [
        {
          "internalType": "address",
          "name": "",
          "type": "address"
        }
      ],
      "name": "userRoles",
      "outputs": [
        {
          "internalType": "enum HealthcareRegistry.Role",
          "name": "",
          "type": "uint8"
        }
      ],
      "stateMutability": "view",
      "type": "function"
    }
  ],
  "bytecode": "0x60806040523480156200001157600080fd5b5060036000803373ffffffffffffffffffffffffffffffffffffffff1673ffffffffffffffffffffffffffffffffffffffff16815260200190815260200160002060006101000a81548160ff02191690836003811115620000775762000076620000d3565b5b02179055503373ffffffffffffffffffffffffffffffffffffffff167f4ac36fa53f167ceb85964be512e01de2a3b8bdb9862f917da079deeeff689b386003604051620000c5919062000153565b60405180910390a262000170565b7f4e487b7100000000000000000000000000000000000000000000000000000000600052602160045260246000fd5b60048110620001165762000115620000d3565b5b50565b6000819050620001298262000102565b919050565b60006200013b8262000119565b9050919050565b6200014d816200012e565b82525050565b60006020820190506200016a600083018462000142565b92915050565b61321180620001806000396000f3fe608060405234801561001057600080fd5b50600436106100b45760003560e01c80636e3b47fc116100715780636e3b47fc1461019f57806374d5e100146101bd57806385166fcb146101ed5780638b145ec814610209578063a87a529c14610227578063aceebef414610257576100b4565b806318a231a9146100b95780633378e170146100d757806348e81852146100f35780634ac9e3001461012357806354163e5f14610153578063630a195b14610183575b600080fd5b6100c1610273565b6040516100ce919061225f565b60405180910390f35b6100f160048036038101906100ec9190612411565b610378565b005b61010d60048036038101906101089190612556565b610587565b60405161011a91906126e4565b60405180910390f35b61013d60048036038101906101389190612706565b610a57565b60405161014a9190612755565b60405180910390f35b61016d60048036038101906101689190612556565b610aa5565b60405161017a91906126e4565b60405180910390f35b61019d60048036038101906101989190612795565b611010565b005b6101a76111e3565b6040516101b4919061284c565b60405180910390f35b6101d760048036038101906101d29190612556565b611236565b6040516101e4919061284c565b60405180910390f35b61020760048036038101906102029190612867565b611256565b005b610211611615565b60405161021e919061225f565b60405180910390f35b610241600480360381019061023c9190612556565b611794565b60405161024e91906129e0565b60405180910390f35b610271600480360381019061026c9190612a02565b611cb7565b005b6060600380600381111561028a576102896127d5565b5b6000803373ffffffffffffffffffffffffffffffffffffffff1673ffffffffffffffffffffffffffffffffffffffff16815260200190815260200160002060009054906101000a900460ff1660038111156102e8576102e76127d5565b5b14610328576040517f08c379a000000000000000000000000000000000000000000000000000000000815260040161031f90612a9f565b60405180910390fd5b600067ffffffffffffffff811115610343576103426122b0565b5b6040519080825280602002602001820160405280156103715781602001602082028036833780820191505090505b5091505090565b600180600381111561038d5761038c6127d5565b5b6000803373ffffffffffffffffffffffffffffffffffffffff1673ffffffffffffffffffffffffffffffffffffffff16815260200190815260200160002060009054906101000a900460ff1660038111156103eb576103ea6127d5565b5b1461042b576040517f08c379a000000000000000000000000000000000000000000000000000000000815260040161042290612a9f565b60405180910390fd5b6040518060e0016040528088815260200187815260200186815260200185815260200184815260200183815260200160011515815250600160003373ffffffffffffffffffffffffffffffffffffffff1673ffffffffffffffffffffffffffffffffffffffff16815260200190815260200160002060008201518160000190816104b59190612ccb565b506020820151816001015560408201518160020190816104d59190612ccb565b5060608201518160030190816104eb9190612ccb565b5060808201518160040190816105019190612ccb565b5060a08201518160050190816105179190612ccb565b5060c08201518160060160006101000a81548160ff0219169083151502179055509050503373ffffffffffffffffffffffffffffffffffffffff167fb05415814a94a428adcbb8c806a0363450bea8896e0cceafa3ce7976ac286fa060405160405180910390a250505050505050565b61058f6120db565b818073ffffffffffffffffffffffffffffffffffffffff163373ffffffffffffffffffffffffffffffffffffffff16148061063857506003808111156105d8576105d76127d5565b5b6000803373ffffffffffffffffffffffffffffffffffffffff1673ffffffffffffffffffffffffffffffffffffffff16815260200190815260200160002060009054906101000a900460ff166003811115610636576106356127d5565b5b145b610677576040517f08c379a000000000000000000000000000000000000000000000000000000000815260040161066e90612e0f565b60405180910390fd5b600160008473ffffffffffffffffffffffffffffffffffffffff1673ffffffffffffffffffffffffffffffffffffffff16815260200190815260200160002060060160009054906101000a900460ff16610706576040517f08c379a00000000000000000000000000000000000000000000000000000000081526004016106fd90612e7b565b60405180910390fd5b600160008473ffffffffffffffffffffffffffffffffffffffff1673ffffffffffffffffffffffffffffffffffffffff1681526020019081526020016000206040518060e001604052908160008201805461076090612aee565b80601f016020809104026020016040519081016040528092919081815260200182805461078c90612aee565b80156107d95780601f106107ae576101008083540402835291602001916107d9565b820191906000526020600020905b8154815290600101906020018083116107bc57829003601f168201915b50505050508152602001600182015481526020016002820180546107fc90612aee565b80601f016020809104026020016040519081016040528092919081815260200182805461082890612aee565b80156108755780601f1061084a57610100808354040283529160200191610875565b820191906000526020600020905b81548152906001019060200180831161085857829003601f168201915b5050505050815260200160038201805461088e90612aee565b80601f01602080910402602001604051908101604052809291908181526020018280546108ba90612aee565b80156109075780601f106108dc57610100808354040283529160200191610907565b820191906000526020600020905b8154815290600101906020018083116108ea57829003601f168201915b5050505050815260200160048201805461092090612aee565b80601f016020809104026020016040519081016040528092919081815260200182805461094c90612aee565b80156109995780601f1061096e57610100808354040283529160200191610999565b820191906000526020600020905b81548152906001019060200180831161097c57829003601f168201915b505050505081526020016005820180546109b290612aee565b80601f01602080910402602001604051908101604052809291908181526020018280546109de90612aee565b8015610a2b5780601f10610a0057610100808354040283529160200191610a2b565b820191906000526020600020905b815481529060010190602001808311610a0e57829003601f168201915b505050505081526020016006820160009054906101000a900460ff161515151581525050915050919050565b60036020528160005260406000208181548110610a7357600080fd5b906000526020600020016000915091509054906101000a900473ffffffffffffffffffffffffffffffffffffffff1681565b610aad6120db565b6002806003811115610ac257610ac16127d5565b5b6000803373ffffffffffffffffffffffffffffffffffffffff1673ffffffffffffffffffffffffffffffffffffffff16815260200190815260200160002060009054906101000a900460ff166003811115610b2057610b1f6127d5565b5b14610b60576040517f08c379a0000000000000000000000000000000000000000000000000000000008152600401610b5790612a9f565b60405180910390fd5b600160008473ffffffffffffffffffffffffffffffffffffffff1673ffffffffffffffffffffffffffffffffffffffff16815260200190815260200160002060060160009054906101000a900460ff16610bef576040517f08c379a0000000000000000000000000000000000000000000000000000000008152600401610be690612e7b565b60405180910390fd5b3373ffffffffffffffffffffffffffffffffffffffff16600260008573ffffffffffffffffffffffffffffffffffffffff1673ffffffffffffffffffffffffffffffffffffffff16815260200190815260200160002060040160009054906101000a900473ffffffffffffffffffffffffffffffffffffffff1673ffffffffffffffffffffffffffffffffffffffff1614610cbf576040517f08c379a0000000000000000000000000000000000000000000000000000000008152600401610cb690612ee7565b60405180910390fd5b600160008473ffffffffffffffffffffffffffffffffffffffff1673ffffffffffffffffffffffffffffffffffffffff1681526020019081526020016000206040518060e0016040529081600082018054610d1990612aee565b80601f0160208091040260200160405190810160405280929190818152602001828054610d4590612aee565b8015610d925780601f10610d6757610100808354040283529160200191610d92565b820191906000526020600020905b815481529060010190602001808311610d7557829003601f168201915b5050505050815260200160018201548152602001600282018054610db590612aee565b80601f0160208091040260200160405190810160405280929190818152602001828054610de190612aee565b8015610e2e5780601f10610e0357610100808354040283529160200191610e2e565b820191906000526020600020905b815481529060010190602001808311610e1157829003601f168201915b50505050508152602001600382018054610e4790612aee565b80601f0160208091040260200160405190810160405280929190818152602001828054610e7390612aee565b8015610ec05780601f10610e9557610100808354040283529160200191610ec0565b820191906000526020600020905b815481529060010190602001808311610ea357829003601f168201915b50505050508152602001600482018054610ed990612aee565b80601f0160208091040260200160405190810160405280929190818152602001828054610f0590612aee565b8015610f525780601f10610f2757610100808354040283529160200191610f52565b820191906000526020600020905b815481529060010190602001808311610f3557829003601f168201915b50505050508152602001600582018054610f6b90612aee565b80601f0160208091040260200160405190810160405280929190818152602001828054610f9790612aee565b8015610fe45780601f10610fb957610100808354040283529160200191610fe4565b820191906000526020600020905b815481529060010190602001808311610fc757829003601f168201915b505050505081526020016006820160009054906101000a900460ff161515151581525050915050919050565b6003806003811115611025576110246127d5565b5b6000803373ffffffffffffffffffffffffffffffffffffffff1673ffffffffffffffffffffffffffffffffffffffff16815260200190815260200160002060009054906101000a900460ff166003811115611083576110826127d5565b5b146110c3576040517f08c379a00000000000000000000000000000000000000000000000000000000081526004016110ba90612a9f565b60405180910390fd5b600060038111156110d7576110d66127d5565b5b8260038111156110ea576110e96127d5565b5b0361112a576040517f08c379a000000000000000000000000000000000000000000000000000000000815260040161112190612f53565b60405180910390fd5b816000808573ffffffffffffffffffffffffffffffffffffffff1673ffffffffffffffffffffffffffffffffffffffff16815260200190815260200160002060006101000a81548160ff0219169083600381111561118b5761118a6127d5565b5b02179055508273ffffffffffffffffffffffffffffffffffffffff167f4ac36fa53f167ceb85964be512e01de2a3b8bdb9862f917da079deeeff689b38836040516111d6919061284c565b60405180910390a2505050565b60008060003373ffffffffffffffffffffffffffffffffffffffff1673ffffffffffffffffffffffffffffffffffffffff16815260200190815260200160002060009054906101000a900460ff16905090565b60006020528060005260406000206000915054906101000a900460ff1681565b600280600381111561126b5761126a6127d5565b5b6000803373ffffffffffffffffffffffffffffffffffffffff1673ffffffffffffffffffffffffffffffffffffffff16815260200190815260200160002060009054906101000a900460ff1660038111156112c9576112c86127d5565b5b14611309576040517f08c379a000000000000000000000000000000000000000000000000000000000815260040161130090612a9f565b60405180910390fd5b600160008773ffffffffffffffffffffffffffffffffffffffff1673ffffffffffffffffffffffffffffffffffffffff16815260200190815260200160002060060160009054906101000a900460ff16611398576040517f08c379a000000000000000000000000000000000000000000000000000000000815260040161138f90612fbf565b60405180910390fd5b3373ffffffffffffffffffffffffffffffffffffffff16600260008873ffffffffffffffffffffffffffffffffffffffff1673ffffffffffffffffffffffffffffffffffffffff16815260200190815260200160002060040160009054906101000a900473ffffffffffffffffffffffffffffffffffffffff1673ffffffffffffffffffffffffffffffffffffffff1614611468576040517f08c379a000000000000000000000000000000000000000000000000000000000815260040161145f90612ee7565b60405180910390fd5b6040518060e001604052808681526020018581526020018481526020018381526020013373ffffffffffffffffffffffffffffffffffffffff16815260200142815260200160011515815250600260008873ffffffffffffffffffffffffffffffffffffffff1673ffffffffffffffffffffffffffffffffffffffff16815260200190815260200160002060008201518160000190816115089190612ccb565b50602082015181600101908161151e9190612ccb565b5060408201518160020190816115349190612ccb565b506060820151816003015560808201518160040160006101000a81548173ffffffffffffffffffffffffffffffffffffffff021916908373ffffffffffffffffffffffffffffffffffffffff16021790555060a0820151816005015560c08201518160060160006101000a81548160ff0219169083151502179055509050503373ffffffffffffffffffffffffffffffffffffffff168673ffffffffffffffffffffffffffffffffffffffff167f8dd737e541304172c1d8cd4f02d7b511ea1b9b5c30a02b9b6b37fc71f7f2fa9960405160405180910390a3505050505050565b6060600280600381111561162c5761162b6127d5565b5b6000803373ffffffffffffffffffffffffffffffffffffffff1673ffffffffffffffffffffffffffffffffffffffff16815260200190815260200160002060009054906101000a900460ff16600381111561168a576116896127d5565b5b146116ca576040517f08c379a00000000000000000000000000000000000000000000000000000000081526004016116c190612a9f565b60405180910390fd5b600360003373ffffffffffffffffffffffffffffffffffffffff1673ffffffffffffffffffffffffffffffffffffffff16815260200190815260200160002080548060200260200160405190810160405280929190818152602001828054801561178957602002820191906000526020600020905b8160009054906101000a900473ffffffffffffffffffffffffffffffffffffffff1673ffffffffffffffffffffffffffffffffffffffff168152602001906001019080831161173f575b505050505091505090565b61179c61211a565b81600260038111156117b1576117b06127d5565b5b6000803373ffffffffffffffffffffffffffffffffffffffff1673ffffffffffffffffffffffffffffffffffffffff16815260200190815260200160002060009054906101000a900460ff16600381111561180f5761180e6127d5565b5b036118e9573373ffffffffffffffffffffffffffffffffffffffff16600260008373ffffffffffffffffffffffffffffffffffffffff1673ffffffffffffffffffffffffffffffffffffffff16815260200190815260200160002060040160009054906101000a900473ffffffffffffffffffffffffffffffffffffffff1673ffffffffffffffffffffffffffffffffffffffff16146118e4576040517f08c379a00000000000000000000000000000000000000000000000000000000081526004016118db90613051565b60405180910390fd5b61199b565b6003808111156118fc576118fb6127d5565b5b6000803373ffffffffffffffffffffffffffffffffffffffff1673ffffffffffffffffffffffffffffffffffffffff16815260200190815260200160002060009054906101000a900460ff16600381111561195a576119596127d5565b5b1461199a576040517f08c379a0000000000000000000000000000000000000000000000000000000008152600401611991906130e3565b60405180910390fd5b5b600260008473ffffffffffffffffffffffffffffffffffffffff1673ffffffffffffffffffffffffffffffffffffffff16815260200190815260200160002060060160009054906101000a900460ff16611a2a576040517f08c379a0000000000000000000000000000000000000000000000000000000008152600401611a219061314f565b60405180910390fd5b600260008473ffffffffffffffffffffffffffffffffffffffff1673ffffffffffffffffffffffffffffffffffffffff1681526020019081526020016000206040518060e0016040529081600082018054611a8490612aee565b80601f0160208091040260200160405190810160405280929190818152602001828054611ab090612aee565b8015611afd5780601f10611ad257610100808354040283529160200191611afd565b820191906000526020600020905b815481529060010190602001808311611ae057829003601f168201915b50505050508152602001600182018054611b1690612aee565b80601f0160208091040260200160405190810160405280929190818152602001828054611b4290612aee565b8015611b8f5780601f10611b6457610100808354040283529160200191611b8f565b820191906000526020600020905b815481529060010190602001808311611b7257829003601f168201915b50505050508152602001600282018054611ba890612aee565b80601f0160208091040260200160405190810160405280929190818152602001828054611bd490612aee565b8015611c215780601f10611bf657610100808354040283529160200191611c21565b820191906000526020600020905b815481529060010190602001808311611c0457829003601f168201915b50505050508152602001600382015481526020016004820160009054906101000a900473ffffffffffffffffffffffffffffffffffffffff1673ffffffffffffffffffffffffffffffffffffffff1673ffffffffffffffffffffffffffffffffffffffff168152602001600582015481526020016006820160009054906101000a900460ff161515151581525050915050919050565b6003806003811115611ccc57611ccb6127d5565b5b6000803373ffffffffffffffffffffffffffffffffffffffff1673ffffffffffffffffffffffffffffffffffffffff16815260200190815260200160002060009054906101000a900460ff166003811115611d2a57611d296127d5565b5b14611d6a576040517f08c379a0000000000000000000000000000000000000000000000000000000008152600401611d6190612a9f565b60405180910390fd5b60026003811115611d7e57611d7d6127d5565b5b6000808573ffffffffffffffffffffffffffffffffffffffff1673ffffffffffffffffffffffffffffffffffffffff16815260200190815260200160002060009054906101000a900460ff166003811115611ddc57611ddb6127d5565b5b14611e1c576040517f08c379a0000000000000000000000000000000000000000000000000000000008152600401611e13906131bb565b60405180910390fd5b600160008373ffffffffffffffffffffffffffffffffffffffff1673ffffffffffffffffffffffffffffffffffffffff16815260200190815260200160002060060160009054906101000a900460ff16611eab576040517f08c379a0000000000000000000000000000000000000000000000000000000008152600401611ea290612fbf565b60405180910390fd5b600260008373ffffffffffffffffffffffffffffffffffffffff1673ffffffffffffffffffffffffffffffffffffffff16815260200190815260200160002060060160009054906101000a900460ff16611f5b576001600260008473ffffffffffffffffffffffffffffffffffffffff1673ffffffffffffffffffffffffffffffffffffffff16815260200190815260200160002060060160006101000a81548160ff0219169083151502179055505b82600260008473ffffffffffffffffffffffffffffffffffffffff1673ffffffffffffffffffffffffffffffffffffffff16815260200190815260200160002060040160006101000a81548173ffffffffffffffffffffffffffffffffffffffff021916908373ffffffffffffffffffffffffffffffffffffffff160217905550600360008473ffffffffffffffffffffffffffffffffffffffff1673ffffffffffffffffffffffffffffffffffffffff168152602001908152602001600020829080600181540180825580915050600190039060005260206000200160009091909190916101000a81548173ffffffffffffffffffffffffffffffffffffffff021916908373ffffffffffffffffffffffffffffffffffffffff1602179055508173ffffffffffffffffffffffffffffffffffffffff168373ffffffffffffffffffffffffffffffffffffffff167f18701f14bac66249ca295c55600d71ae609b85d9ab094ed8673f12b9619e37e060405160405180910390a3505050565b6040518060e001604052806060815260200160008152602001606081526020016060815260200160608152602001606081526020016000151581525090565b6040518060e0016040528060608152602001606081526020016060815260200160008152602001600073ffffffffffffffffffffffffffffffffffffffff168152602001600081526020016000151581525090565b600081519050919050565b600082825260208201905092915050565b6000819050602082019050919050565b600073ffffffffffffffffffffffffffffffffffffffff82169050919050565b60006121c68261219b565b9050919050565b6121d6816121bb565b82525050565b60006121e883836121cd565b60208301905092915050565b6000602082019050919050565b600061220c8261216f565b612216818561217a565b93506122218361218b565b8060005b8381101561225257815161223988826121dc565b9750612244836121f4565b925050600181019050612225565b5085935050505092915050565b600060208201905081810360008301526122798184612201565b905092915050565b6000604051905090565b600080fd5b600080fd5b600080fd5b600080fd5b6000601f19601f8301169050919050565b7f4e487b7100000000000000000000000000000000000000000000000000000000600052604160045260246000fd5b6122e88261229f565b810181811067ffffffffffffffff82111715612307576123066122b0565b5b80604052505050565b600061231a612281565b905061232682826122df565b919050565b600067ffffffffffffffff821115612346576123456122b0565b5b61234f8261229f565b9050602081019050919050565b82818337600083830152505050565b600061237e6123798461232b565b612310565b90508281526020810184848401111561239a5761239961229a565b5b6123a584828561235c565b509392505050565b600082601f8301126123c2576123c1612295565b5b81356123d284826020860161236b565b91505092915050565b6000819050919050565b6123ee816123db565b81146123f957600080fd5b50565b60008135905061240b816123e5565b92915050565b60008060008060008060c0878903121561242e5761242d61228b565b5b600087013567ffffffffffffffff81111561244c5761244b612290565b5b61245889828a016123ad565b965050602061246989828a016123fc565b955050604087013567ffffffffffffffff81111561248a57612489612290565b5b61249689828a016123ad565b945050606087013567ffffffffffffffff8111156124b7576124b6612290565b5b6124c389828a016123ad565b935050608087013567ffffffffffffffff8111156124e4576124e3612290565b5b6124f089828a016123ad565b92505060a087013567ffffffffffffffff81111561251157612510612290565b5b61251d89828a016123ad565b9150509295509295509295565b612533816121bb565b811461253e57600080fd5b50565b6000813590506125508161252a565b92915050565b60006020828403121561256c5761256b61228b565b5b600061257a84828501612541565b91505092915050565b600081519050919050565b600082825260208201905092915050565b60005b838110156125bd5780820151818401526020810190506125a2565b60008484015250505050565b60006125d482612583565b6125de818561258e565b93506125ee81856020860161259f565b6125f78161229f565b840191505092915050565b61260b816123db565b82525050565b60008115159050919050565b61262681612611565b82525050565b600060e083016000830151848203600086015261264982826125c9565b915050602083015161265e6020860182612602565b506040830151848203604086015261267682826125c9565b9150506060830151848203606086015261269082826125c9565b915050608083015184820360808601526126aa82826125c9565b91505060a083015184820360a08601526126c482826125c9565b91505060c08301516126d960c086018261261d565b508091505092915050565b600060208201905081810360008301526126fe818461262c565b905092915050565b6000806040838503121561271d5761271c61228b565b5b600061272b85828601612541565b925050602061273c858286016123fc565b9150509250929050565b61274f816121bb565b82525050565b600060208201905061276a6000830184612746565b92915050565b6004811061277d57600080fd5b50565b60008135905061278f81612770565b92915050565b600080604083850312156127ac576127ab61228b565b5b60006127ba85828601612541565b92505060206127cb85828601612780565b9150509250929050565b7f4e487b7100000000000000000000000000000000000000000000000000000000600052602160045260246000fd5b60048110612815576128146127d5565b5b50565b600081905061282682612804565b919050565b600061283682612818565b9050919050565b6128468161282b565b82525050565b6000602082019050612861600083018461283d565b92915050565b600080600080600060a086880312156128835761288261228b565b5b600061289188828901612541565b955050602086013567ffffffffffffffff8111156128b2576128b1612290565b5b6128be888289016123ad565b945050604086013567ffffffffffffffff8111156128df576128de612290565b5b6128eb888289016123ad565b935050606086013567ffffffffffffffff81111561290c5761290b612290565b5b612918888289016123ad565b9250506080612929888289016123fc565b9150509295509295909350565b600060e083016000830151848203600086015261295382826125c9565b9150506020830151848203602086015261296d82826125c9565b9150506040830151848203604086015261298782826125c9565b915050606083015161299c6060860182612602565b5060808301516129af60808601826121cd565b5060a08301516129c260a0860182612602565b5060c08301516129d560c086018261261d565b508091505092915050565b600060208201905081810360008301526129fa8184612936565b905092915050565b60008060408385031215612a1957612a1861228b565b5b6000612a2785828601612541565b9250506020612a3885828601612541565b9150509250929050565b600082825260208201905092915050565b7f556e617574686f72697a65643a20496e636f727265637420726f6c6500000000600082015250565b6000612a89601c83612a42565b9150612a9482612a53565b602082019050919050565b60006020820190508181036000830152612ab881612a7c565b9050919050565b7f4e487b7100000000000000000000000000000000000000000000000000000000600052602260045260246000fd5b60006002820490506001821680612b0657607f821691505b602082108103612b1957612b18612abf565b5b50919050565b60008190508160005260206000209050919050565b60006020601f8301049050919050565b600082821b905092915050565b600060088302612b817fffffffffffffffffffffffffffffffffffffffffffffffffffffffffffffffff82612b44565b612b8b8683612b44565b95508019841693508086168417925050509392505050565b6000819050919050565b6000612bc8612bc3612bbe846123db565b612ba3565b6123db565b9050919050565b6000819050919050565b612be283612bad565b612bf6612bee82612bcf565b848454612b51565b825550505050565b600090565b612c0b612bfe565b612c16818484612bd9565b505050565b5b81811015612c3a57612c2f600082612c03565b600181019050612c1c565b5050565b601f821115612c7f57612c5081612b1f565b612c5984612b34565b81016020851015612c68578190505b612c7c612c7485612b34565b830182612c1b565b50505b505050565b600082821c905092915050565b6000612ca260001984600802612c84565b1980831691505092915050565b6000612cbb8383612c91565b9150826002028217905092915050565b612cd482612583565b67ffffffffffffffff811115612ced57612cec6122b0565b5b612cf78254612aee565b612d02828285612c3e565b600060209050601f831160018114612d355760008415612d23578287015190505b612d2d8582612caf565b865550612d95565b601f198416612d4386612b1f565b60005b82811015612d6b57848901518255600182019150602085019450602081019050612d46565b86831015612d885784890151612d84601f891682612c91565b8355505b6001600288020188555050505b505050505050565b7f556e617574686f72697a65643a204f6e6c792070617469656e74206f7220616460008201527f7669736f722063616e2061636365737300000000000000000000000000000000602082015250565b6000612df9603083612a42565b9150612e0482612d9d565b604082019050919050565b60006020820190508181036000830152612e2881612dec565b9050919050565b7f50617469656e74206461746120646f6573206e6f742065786973740000000000600082015250565b6000612e65601b83612a42565b9150612e7082612e2f565b602082019050919050565b60006020820190508181036000830152612e9481612e58565b9050919050565b7f4e6f742061737369676e656420746f20746869732070617469656e7400000000600082015250565b6000612ed1601c83612a42565b9150612edc82612e9b565b602082019050919050565b60006020820190508181036000830152612f0081612ec4565b9050919050565b7f496e76616c696420726f6c650000000000000000000000000000000000000000600082015250565b6000612f3d600c83612a42565b9150612f4882612f07565b602082019050919050565b60006020820190508181036000830152612f6c81612f30565b9050919050565b7f50617469656e7420646f6573206e6f7420657869737400000000000000000000600082015250565b6000612fa9601683612a42565b9150612fb482612f73565b602082019050919050565b60006020820190508181036000830152612fd881612f9c565b9050919050565b7f556e617574686f72697a65643a204e6f742061737369676e656420746f20746860008201527f69732070617469656e7400000000000000000000000000000000000000000000602082015250565b600061303b602a83612a42565b915061304682612fdf565b604082019050919050565b6000602082019050818103600083015261306a8161302e565b9050919050565b7f556e617574686f72697a65643a204f6e6c792061737369676e656420646f637460008201527f6f72206f722061647669736f722063616e206163636573730000000000000000602082015250565b60006130cd603883612a42565b91506130d882613071565b604082019050919050565b600060208201905081810360008301526130fc816130c0565b9050919050565b7f54726561746d656e7420706c616e20646f6573206e6f74206578697374000000600082015250565b6000613139601d83612a42565b915061314482613103565b602082019050919050565b600060208201905081810360008301526131688161312c565b9050919050565b7f41646472657373206973206e6f74206120646f63746f72000000000000000000600082015250565b60006131a5601783612a42565b91506131b08261316f565b602082019050919050565b600060208201905081810360008301526131d481613198565b905091905056fea26469706673582212208c14d05e4b888fcf953a72982002dd0ef1d2d644cabe051cda6f1f2732c3447364736f6c63430008130033",
  "linkReferences": {},
  "deployedLinkReferences": {}
}